{
  "_format": "hh-sol-artifact-1",
  "contractName": "CreditEscrow",
  "sourceName": "contracts/CreditEscrow.sol",
  "abi": [
    {
      "inputs": [
        {
          "internalType": "uint256",
          "name": "amountToPayBack",
          "type": "uint256"
        },
        {
          "internalType": "uint256",
          "name": "percentInterestPerMonthToPayBack",
          "type": "uint256"
        }
      ],
      "stateMutability": "nonpayable",
      "type": "constructor"
    },
    {
      "inputs": [],
      "name": "amount",
      "outputs": [
        {
          "internalType": "uint256",
          "name": "",
          "type": "uint256"
        }
      ],
      "stateMutability": "view",
      "type": "function"
    },
    {
      "inputs": [],
      "name": "applicant",
      "outputs": [
        {
          "internalType": "address",
          "name": "",
          "type": "address"
        }
      ],
      "stateMutability": "view",
      "type": "function"
    },
    {
      "inputs": [],
      "name": "isAmountSet",
      "outputs": [
        {
          "internalType": "bool",
          "name": "",
          "type": "bool"
        }
      ],
      "stateMutability": "view",
      "type": "function"
    },
    {
      "inputs": [],
      "name": "owner",
      "outputs": [
        {
          "internalType": "address",
          "name": "",
          "type": "address"
        }
      ],
      "stateMutability": "view",
      "type": "function"
    },
    {
      "inputs": [],
      "name": "payCut",
      "outputs": [],
      "stateMutability": "payable",
      "type": "function"
    },
    {
      "inputs": [],
      "name": "percentInterestPerMonth",
      "outputs": [
        {
          "internalType": "uint256",
          "name": "",
          "type": "uint256"
        }
      ],
      "stateMutability": "view",
      "type": "function"
    },
    {
      "inputs": [
        {
          "internalType": "uint256",
          "name": "amountToPayBack",
          "type": "uint256"
        },
        {
          "internalType": "uint256",
          "name": "percentInterestPerMonthToPayBack",
          "type": "uint256"
        }
      ],
      "name": "setAmount",
      "outputs": [],
      "stateMutability": "nonpayable",
      "type": "function"
    },
    {
      "inputs": [],
      "name": "withDraw",
      "outputs": [],
      "stateMutability": "nonpayable",
      "type": "function"
    }
  ],
  "bytecode": "0x60806040523480156200001157600080fd5b5060405162000ae138038062000ae1833981810160405281019062000037919062000163565b33600160006101000a81548173ffffffffffffffffffffffffffffffffffffffff021916908373ffffffffffffffffffffffffffffffffffffffff1602179055506200008a82826200009260201b60201c565b5050620002e3565b8161025811620000d9576040517f08c379a0000000000000000000000000000000000000000000000000000000008152600401620000d09062000214565b60405180910390fd5b600a81116200011f576040517f08c379a00000000000000000000000000000000000000000000000000000000081526004016200011690620001f2565b60405180910390fd5b81600281905550806003819055506001600460006101000a81548160ff0219169083151502179055505050565b6000815190506200015d81620002c9565b92915050565b600080604083850312156200017757600080fd5b600062000187858286016200014c565b92505060206200019a858286016200014c565b9150509250929050565b6000620001b360288362000236565b9150620001c08262000251565b604082019050919050565b6000620001da601d8362000236565b9150620001e782620002a0565b602082019050919050565b600060208201905081810360008301526200020d81620001a4565b9050919050565b600060208201905081810360008301526200022f81620001cb565b9050919050565b600082825260208201905092915050565b6000819050919050565b7f496e74657265737420697320746f6f20686967682c206d6178696d756d20313060008201527f2028203130252029000000000000000000000000000000000000000000000000602082015250565b7f4d6178696d756d20616d6f756e7420616c6c6f77656420697320363030000000600082015250565b620002d48162000247565b8114620002e057600080fd5b50565b6107ee80620002f36000396000f3fe60806040526004361061007b5760003560e01c8063aa8c217c1161004e578063aa8c217c146100f7578063b1ac768a14610122578063bd8bc8571461014d578063c6a023e9146101785761007b565b80630fdb1c10146100805780635c1ea08b1461009757806388e687ea146100a15780638da5cb5b146100cc575b600080fd5b34801561008c57600080fd5b506100956101a1565b005b61009f61029c565b005b3480156100ad57600080fd5b506100b6610386565b6040516100c391906105ad565b60405180910390f35b3480156100d857600080fd5b506100e16103aa565b6040516100ee91906105ad565b60405180910390f35b34801561010357600080fd5b5061010c6103d0565b6040516101199190610663565b60405180910390f35b34801561012e57600080fd5b506101376103d6565b60405161014491906105c8565b60405180910390f35b34801561015957600080fd5b506101626103e9565b60405161016f9190610663565b60405180910390f35b34801561018457600080fd5b5061019f600480360381019061019a91906104b8565b6103ef565b005b600160009054906101000a900473ffffffffffffffffffffffffffffffffffffffff1673ffffffffffffffffffffffffffffffffffffffff163373ffffffffffffffffffffffffffffffffffffffff1614610231576040517f08c379a000000000000000000000000000000000000000000000000000000000815260040161022890610623565b60405180910390fd5b600160009054906101000a900473ffffffffffffffffffffffffffffffffffffffff1673ffffffffffffffffffffffffffffffffffffffff166108fc479081150290604051600060405180830381858888f19350505050158015610299573d6000803e3d6000fd5b50565b600160009054906101000a900473ffffffffffffffffffffffffffffffffffffffff1673ffffffffffffffffffffffffffffffffffffffff163373ffffffffffffffffffffffffffffffffffffffff1614158015610345575060008054906101000a900473ffffffffffffffffffffffffffffffffffffffff1673ffffffffffffffffffffffffffffffffffffffff163373ffffffffffffffffffffffffffffffffffffffff16145b610384576040517f08c379a000000000000000000000000000000000000000000000000000000000815260040161037b906105e3565b60405180910390fd5b565b60008054906101000a900473ffffffffffffffffffffffffffffffffffffffff1681565b600160009054906101000a900473ffffffffffffffffffffffffffffffffffffffff1681565b60025481565b600460009054906101000a900460ff1681565b60035481565b8161025811610433576040517f08c379a000000000000000000000000000000000000000000000000000000000815260040161042a90610643565b60405180910390fd5b600a8111610476576040517f08c379a000000000000000000000000000000000000000000000000000000000815260040161046d90610603565b60405180910390fd5b81600281905550806003819055506001600460006101000a81548160ff0219169083151502179055505050565b6000813590506104b2816107a1565b92915050565b600080604083850312156104cb57600080fd5b60006104d9858286016104a3565b92505060206104ea858286016104a3565b9150509250929050565b6104fd8161068f565b82525050565b61050c816106a1565b82525050565b600061051f60168361067e565b915061052a826106d7565b602082019050919050565b600061054260288361067e565b915061054d82610700565b604082019050919050565b600061056560168361067e565b91506105708261074f565b602082019050919050565b6000610588601d8361067e565b915061059382610778565b602082019050919050565b6105a7816106cd565b82525050565b60006020820190506105c260008301846104f4565b92915050565b60006020820190506105dd6000830184610503565b92915050565b600060208201905081810360008301526105fc81610512565b9050919050565b6000602082019050818103600083015261061c81610535565b9050919050565b6000602082019050818103600083015261063c81610558565b9050919050565b6000602082019050818103600083015261065c8161057b565b9050919050565b6000602082019050610678600083018461059e565b92915050565b600082825260208201905092915050565b600061069a826106ad565b9050919050565b60008115159050919050565b600073ffffffffffffffffffffffffffffffffffffffff82169050919050565b6000819050919050565b7f596f7520617265206e6f74206170706c6963616e742e00000000000000000000600082015250565b7f496e74657265737420697320746f6f20686967682c206d6178696d756d20313060008201527f2028203130252029000000000000000000000000000000000000000000000000602082015250565b7f596f7520617265206e6f7420746865206f776e65722e00000000000000000000600082015250565b7f4d6178696d756d20616d6f756e7420616c6c6f77656420697320363030000000600082015250565b6107aa816106cd565b81146107b557600080fd5b5056fea2646970667358221220df4e0a7e6313d7bc1bca7fa179312287ae4757fddbe2142974911ddda6f827e564736f6c63430008040033",
  "linkReferences": {},
  "deployedLinkReferences": {}
}