{
  "_format": "hh-sol-artifact-1",
  "contractName": "AnnounceEscrow",
  "sourceName": "contracts/AnnounceEscrow.sol",
  "abi": [
    {
      "inputs": [
        {
          "internalType": "uint256",
          "name": "amountAnnounce",
          "type": "uint256"
        },
        {
          "internalType": "string",
          "name": "announceTitle",
          "type": "string"
        }
      ],
      "stateMutability": "nonpayable",
      "type": "constructor"
    },
    {
      "inputs": [],
      "name": "amount",
      "outputs": [
        {
          "internalType": "uint256",
          "name": "",
          "type": "uint256"
        }
      ],
      "stateMutability": "view",
      "type": "function"
    },
    {
      "inputs": [],
      "name": "applicant",
      "outputs": [
        {
          "internalType": "address",
          "name": "",
          "type": "address"
        }
      ],
      "stateMutability": "view",
      "type": "function"
    },
    {
      "inputs": [],
      "name": "owner",
      "outputs": [
        {
          "internalType": "address",
          "name": "",
          "type": "address"
        }
      ],
      "stateMutability": "view",
      "type": "function"
    },
    {
      "inputs": [],
      "name": "pay",
      "outputs": [],
      "stateMutability": "payable",
      "type": "function"
    },
    {
      "inputs": [
        {
          "internalType": "uint256",
          "name": "amountAnnounce",
          "type": "uint256"
        },
        {
          "internalType": "string",
          "name": "announceTitle",
          "type": "string"
        }
      ],
      "name": "setAmountAndDetails",
      "outputs": [],
      "stateMutability": "nonpayable",
      "type": "function"
    },
    {
      "inputs": [],
      "name": "title",
      "outputs": [
        {
          "internalType": "string",
          "name": "",
          "type": "string"
        }
      ],
      "stateMutability": "view",
      "type": "function"
    },
    {
      "inputs": [],
      "name": "withDraw",
      "outputs": [],
      "stateMutability": "nonpayable",
      "type": "function"
    }
  ],
  "bytecode": "0x60806040523480156200001157600080fd5b50604051620015983803806200159883398181016040528101906200003791906200027c565b33600360006101000a81548173ffffffffffffffffffffffffffffffffffffffff021916908373ffffffffffffffffffffffffffffffffffffffff1602179055506200008a82826200009260201b60201c565b50506200055f565b60028210620000d8576040517f08c379a0000000000000000000000000000000000000000000000000000000008152600401620000cf9062000346565b60405180910390fd5b60008151146200011f576040517f08c379a0000000000000000000000000000000000000000000000000000000008152600401620001169062000324565b60405180910390fd5b8160018190555080600290805190602001906200013e92919062000143565b505050565b828054620001519062000418565b90600052602060002090601f016020900481019282620001755760008555620001c1565b82601f106200019057805160ff1916838001178555620001c1565b82800160010185558215620001c1579182015b82811115620001c0578251825591602001919060010190620001a3565b5b509050620001d09190620001d4565b5090565b5b80821115620001ef576000816000905550600101620001d5565b5090565b60006200020a620002048462000391565b62000368565b9050828152602081018484840111156200022357600080fd5b62000230848285620003e2565b509392505050565b600082601f8301126200024a57600080fd5b81516200025c848260208601620001f3565b91505092915050565b600081519050620002768162000545565b92915050565b600080604083850312156200029057600080fd5b6000620002a08582860162000265565b925050602083015167ffffffffffffffff811115620002be57600080fd5b620002cc8582860162000238565b9150509250929050565b6000620002e5601d83620003c7565b9150620002f282620004f3565b602082019050919050565b60006200030c601283620003c7565b915062000319826200051c565b602082019050919050565b600060208201905081810360008301526200033f81620002d6565b9050919050565b600060208201905081810360008301526200036181620002fd565b9050919050565b60006200037462000387565b90506200038282826200044e565b919050565b6000604051905090565b600067ffffffffffffffff821115620003af57620003ae620004b3565b5b620003ba82620004e2565b9050602081019050919050565b600082825260208201905092915050565b6000819050919050565b60005b8381101562000402578082015181840152602081019050620003e5565b8381111562000412576000848401525b50505050565b600060028204905060018216806200043157607f821691505b6020821081141562000448576200044762000484565b5b50919050565b6200045982620004e2565b810181811067ffffffffffffffff821117156200047b576200047a620004b3565b5b80604052505050565b7f4e487b7100000000000000000000000000000000000000000000000000000000600052602260045260246000fd5b7f4e487b7100000000000000000000000000000000000000000000000000000000600052604160045260246000fd5b6000601f19601f8301169050919050565b7f416e6e6f756e6365207469746c652063616e277420626520656d707479000000600082015250565b7f4d696e696d756d20707269636520697320320000000000000000000000000000600082015250565b6200055081620003d8565b81146200055c57600080fd5b50565b611029806200056f6000396000f3fe6080604052600436106100705760003560e01c806388e687ea1161004e57806388e687ea146100c15780638da5cb5b146100ec578063aa8c217c14610117578063aa93cb161461014257610070565b80630fdb1c10146100755780631b9265b81461008c5780634a79d50c14610096575b600080fd5b34801561008157600080fd5b5061008a61016b565b005b610094610344565b005b3480156100a257600080fd5b506100ab610568565b6040516100b89190610ba1565b60405180910390f35b3480156100cd57600080fd5b506100d66105f6565b6040516100e39190610b86565b60405180910390f35b3480156100f857600080fd5b5061010161061a565b60405161010e9190610b86565b60405180910390f35b34801561012357600080fd5b5061012c610640565b6040516101399190610ce3565b60405180910390f35b34801561014e57600080fd5b5061016960048036038101906101649190610a09565b610646565b005b600360009054906101000a900473ffffffffffffffffffffffffffffffffffffffff1673ffffffffffffffffffffffffffffffffffffffff163373ffffffffffffffffffffffffffffffffffffffff16146101fb576040517f08c379a00000000000000000000000000000000000000000000000000000000081526004016101f290610cc3565b60405180910390fd5b61025c6040518060400160405280601c81526020017f57697468647261772073746172746564206279206f776e6572203a2000000000815250600360009054906101000a900473ffffffffffffffffffffffffffffffffffffffff166106ef565b61029b6040518060400160405280600f81526020017f7472616e7366657220574549203a2000000000000000000000000000000000008152504761078b565b600360009054906101000a900473ffffffffffffffffffffffffffffffffffffffff1673ffffffffffffffffffffffffffffffffffffffff166108fc479081150290604051600060405180830381858888f19350505050158015610303573d6000803e3d6000fd5b506103426040518060400160405280602081526020017f5472616e73666572656420746f206f776e657220776974682073756363657373815250610827565b565b600360009054906101000a900473ffffffffffffffffffffffffffffffffffffffff1673ffffffffffffffffffffffffffffffffffffffff163373ffffffffffffffffffffffffffffffffffffffff1614156103d5576040517f08c379a00000000000000000000000000000000000000000000000000000000081526004016103cc90610c83565b60405180910390fd5b600073ffffffffffffffffffffffffffffffffffffffff1660008054906101000a900473ffffffffffffffffffffffffffffffffffffffff1673ffffffffffffffffffffffffffffffffffffffff1614610464576040517f08c379a000000000000000000000000000000000000000000000000000000000815260040161045b90610c43565b60405180910390fd5b60015434146104a8576040517f08c379a000000000000000000000000000000000000000000000000000000000815260040161049f90610c23565b60405180910390fd5b6104e76040518060400160405280600981526020017f706179206279203a200000000000000000000000000000000000000000000000815250336106ef565b336000806101000a81548173ffffffffffffffffffffffffffffffffffffffff021916908373ffffffffffffffffffffffffffffffffffffffff1602179055506105666040518060400160405280601a81526020017f636f6e74726163742062616c616e6365206973206e6f77203a200000000000008152504761078b565b565b6002805461057590610dee565b80601f01602080910402602001604051908101604052809291908181526020018280546105a190610dee565b80156105ee5780601f106105c3576101008083540402835291602001916105ee565b820191906000526020600020905b8154815290600101906020018083116105d157829003601f168201915b505050505081565b60008054906101000a900473ffffffffffffffffffffffffffffffffffffffff1681565b600360009054906101000a900473ffffffffffffffffffffffffffffffffffffffff1681565b60015481565b60028210610689576040517f08c379a000000000000000000000000000000000000000000000000000000000815260040161068090610ca3565b60405180910390fd5b60008151146106cd576040517f08c379a00000000000000000000000000000000000000000000000000000000081526004016106c490610c63565b60405180910390fd5b8160018190555080600290805190602001906106ea9291906108e9565b505050565b6107878282604051602401610705929190610bc3565b6040516020818303038152906040527f319af333000000000000000000000000000000000000000000000000000000007bffffffffffffffffffffffffffffffffffffffffffffffffffffffff19166020820180517bffffffffffffffffffffffffffffffffffffffffffffffffffffffff83818316178352505050506108c0565b5050565b61082382826040516024016107a1929190610bf3565b6040516020818303038152906040527f9710a9d0000000000000000000000000000000000000000000000000000000007bffffffffffffffffffffffffffffffffffffffffffffffffffffffff19166020820180517bffffffffffffffffffffffffffffffffffffffffffffffffffffffff83818316178352505050506108c0565b5050565b6108bd8160405160240161083b9190610ba1565b6040516020818303038152906040527f41304fac000000000000000000000000000000000000000000000000000000007bffffffffffffffffffffffffffffffffffffffffffffffffffffffff19166020820180517bffffffffffffffffffffffffffffffffffffffffffffffffffffffff83818316178352505050506108c0565b50565b60008151905060006a636f6e736f6c652e6c6f679050602083016000808483855afa5050505050565b8280546108f590610dee565b90600052602060002090601f016020900481019282610917576000855561095e565b82601f1061093057805160ff191683800117855561095e565b8280016001018555821561095e579182015b8281111561095d578251825591602001919060010190610942565b5b50905061096b919061096f565b5090565b5b80821115610988576000816000905550600101610970565b5090565b600061099f61099a84610d23565b610cfe565b9050828152602081018484840111156109b757600080fd5b6109c2848285610dac565b509392505050565b600082601f8301126109db57600080fd5b81356109eb84826020860161098c565b91505092915050565b600081359050610a0381610fdc565b92915050565b60008060408385031215610a1c57600080fd5b6000610a2a858286016109f4565b925050602083013567ffffffffffffffff811115610a4757600080fd5b610a53858286016109ca565b9150509250929050565b610a6681610d70565b82525050565b6000610a7782610d54565b610a818185610d5f565b9350610a91818560208601610dbb565b610a9a81610eaf565b840191505092915050565b6000610ab2601483610d5f565b9150610abd82610ec0565b602082019050919050565b6000610ad5602183610d5f565b9150610ae082610ee9565b604082019050919050565b6000610af8601d83610d5f565b9150610b0382610f38565b602082019050919050565b6000610b1b601683610d5f565b9150610b2682610f61565b602082019050919050565b6000610b3e601283610d5f565b9150610b4982610f8a565b602082019050919050565b6000610b61601683610d5f565b9150610b6c82610fb3565b602082019050919050565b610b8081610da2565b82525050565b6000602082019050610b9b6000830184610a5d565b92915050565b60006020820190508181036000830152610bbb8184610a6c565b905092915050565b60006040820190508181036000830152610bdd8185610a6c565b9050610bec6020830184610a5d565b9392505050565b60006040820190508181036000830152610c0d8185610a6c565b9050610c1c6020830184610b77565b9392505050565b60006020820190508181036000830152610c3c81610aa5565b9050919050565b60006020820190508181036000830152610c5c81610ac8565b9050919050565b60006020820190508181036000830152610c7c81610aeb565b9050919050565b60006020820190508181036000830152610c9c81610b0e565b9050919050565b60006020820190508181036000830152610cbc81610b31565b9050919050565b60006020820190508181036000830152610cdc81610b54565b9050919050565b6000602082019050610cf86000830184610b77565b92915050565b6000610d08610d19565b9050610d148282610e20565b919050565b6000604051905090565b600067ffffffffffffffff821115610d3e57610d3d610e80565b5b610d4782610eaf565b9050602081019050919050565b600081519050919050565b600082825260208201905092915050565b6000610d7b82610d82565b9050919050565b600073ffffffffffffffffffffffffffffffffffffffff82169050919050565b6000819050919050565b82818337600083830152505050565b60005b83811015610dd9578082015181840152602081019050610dbe565b83811115610de8576000848401525b50505050565b60006002820490506001821680610e0657607f821691505b60208210811415610e1a57610e19610e51565b5b50919050565b610e2982610eaf565b810181811067ffffffffffffffff82111715610e4857610e47610e80565b5b80604052505050565b7f4e487b7100000000000000000000000000000000000000000000000000000000600052602260045260246000fd5b7f4e487b7100000000000000000000000000000000000000000000000000000000600052604160045260246000fd5b6000601f19601f8301169050919050565b7f4e6f7420656e6f756768205745492073656e642e000000000000000000000000600082015250565b7f416c7265616479207061696420627920616e6f74686572206170706c6963616e60008201527f7400000000000000000000000000000000000000000000000000000000000000602082015250565b7f416e6e6f756e6365207469746c652063616e277420626520656d707479000000600082015250565b7f596f7520617265206e6f74206170706c6963616e742e00000000000000000000600082015250565b7f4d696e696d756d20707269636520697320320000000000000000000000000000600082015250565b7f596f7520617265206e6f7420746865206f776e65722e00000000000000000000600082015250565b610fe581610da2565b8114610ff057600080fd5b5056fea264697066735822122015456e33d2a6d69130ba38a68bce8555ac5d7dceb340943e3a3e7f950d90ba1164736f6c63430008040033",
  "linkReferences": {},
  "deployedLinkReferences": {}
}