{
  "_format": "hh-sol-artifact-1",
  "contractName": "AnnounceEscrow",
  "sourceName": "contracts/AnnounceEscrow.sol",
  "abi": [
    {
      "inputs": [
        {
          "internalType": "uint256",
          "name": "amountAnnounce",
          "type": "uint256"
        },
        {
          "internalType": "string",
          "name": "announceTitle",
          "type": "string"
        }
      ],
      "stateMutability": "nonpayable",
      "type": "constructor"
    },
    {
      "inputs": [],
      "name": "amount",
      "outputs": [
        {
          "internalType": "uint256",
          "name": "",
          "type": "uint256"
        }
      ],
      "stateMutability": "view",
      "type": "function"
    },
    {
      "inputs": [],
      "name": "applicant",
      "outputs": [
        {
          "internalType": "address",
          "name": "",
          "type": "address"
        }
      ],
      "stateMutability": "view",
      "type": "function"
    },
    {
      "inputs": [],
      "name": "owner",
      "outputs": [
        {
          "internalType": "address",
          "name": "",
          "type": "address"
        }
      ],
      "stateMutability": "view",
      "type": "function"
    },
    {
      "inputs": [],
      "name": "pay",
      "outputs": [],
      "stateMutability": "payable",
      "type": "function"
    },
    {
      "inputs": [
        {
          "internalType": "uint256",
          "name": "amountAnnounce",
          "type": "uint256"
        },
        {
          "internalType": "string",
          "name": "announceTitle",
          "type": "string"
        }
      ],
      "name": "setAmountAndDetails",
      "outputs": [],
      "stateMutability": "nonpayable",
      "type": "function"
    },
    {
      "inputs": [],
      "name": "title",
      "outputs": [
        {
          "internalType": "string",
          "name": "",
          "type": "string"
        }
      ],
      "stateMutability": "view",
      "type": "function"
    },
    {
      "inputs": [],
      "name": "withDraw",
      "outputs": [],
      "stateMutability": "nonpayable",
      "type": "function"
    }
  ],
  "bytecode": "0x60806040523480156200001157600080fd5b506040516200149d3803806200149d83398181016040528101906200003791906200027d565b33600360006101000a81548173ffffffffffffffffffffffffffffffffffffffff021916908373ffffffffffffffffffffffffffffffffffffffff1602179055506200008a82826200009260201b60201c565b505062000560565b60028211620000d8576040517f08c379a0000000000000000000000000000000000000000000000000000000008152600401620000cf9062000347565b60405180910390fd5b60008151141562000120576040517f08c379a0000000000000000000000000000000000000000000000000000000008152600401620001179062000325565b60405180910390fd5b8160018190555080600290805190602001906200013f92919062000144565b505050565b828054620001529062000419565b90600052602060002090601f016020900481019282620001765760008555620001c2565b82601f106200019157805160ff1916838001178555620001c2565b82800160010185558215620001c2579182015b82811115620001c1578251825591602001919060010190620001a4565b5b509050620001d19190620001d5565b5090565b5b80821115620001f0576000816000905550600101620001d6565b5090565b60006200020b620002058462000392565b62000369565b9050828152602081018484840111156200022457600080fd5b62000231848285620003e3565b509392505050565b600082601f8301126200024b57600080fd5b81516200025d848260208601620001f4565b91505092915050565b600081519050620002778162000546565b92915050565b600080604083850312156200029157600080fd5b6000620002a18582860162000266565b925050602083015167ffffffffffffffff811115620002bf57600080fd5b620002cd8582860162000239565b9150509250929050565b6000620002e6601d83620003c8565b9150620002f382620004f4565b602082019050919050565b60006200030d601283620003c8565b91506200031a826200051d565b602082019050919050565b600060208201905081810360008301526200034081620002d7565b9050919050565b600060208201905081810360008301526200036281620002fe565b9050919050565b60006200037562000388565b90506200038382826200044f565b919050565b6000604051905090565b600067ffffffffffffffff821115620003b057620003af620004b4565b5b620003bb82620004e3565b9050602081019050919050565b600082825260208201905092915050565b6000819050919050565b60005b8381101562000403578082015181840152602081019050620003e6565b8381111562000413576000848401525b50505050565b600060028204905060018216806200043257607f821691505b6020821081141562000449576200044862000485565b5b50919050565b6200045a82620004e3565b810181811067ffffffffffffffff821117156200047c576200047b620004b4565b5b80604052505050565b7f4e487b7100000000000000000000000000000000000000000000000000000000600052602260045260246000fd5b7f4e487b7100000000000000000000000000000000000000000000000000000000600052604160045260246000fd5b6000601f19601f8301169050919050565b7f416e6e6f756e6365207469746c652063616e277420626520656d707479000000600082015250565b7f4d696e696d756d20707269636520697320320000000000000000000000000000600082015250565b6200055181620003d9565b81146200055d57600080fd5b50565b610f2d80620005706000396000f3fe6080604052600436106100705760003560e01c806388e687ea1161004e57806388e687ea146100c15780638da5cb5b146100ec578063aa8c217c14610117578063aa93cb161461014257610070565b80630fdb1c10146100755780631b9265b81461008c5780634a79d50c14610096575b600080fd5b34801561008157600080fd5b5061008a61016b565b005b610094610344565b005b3480156100a257600080fd5b506100ab6104d7565b6040516100b89190610aee565b60405180910390f35b3480156100cd57600080fd5b506100d6610565565b6040516100e39190610ad3565b60405180910390f35b3480156100f857600080fd5b50610101610589565b60405161010e9190610ad3565b60405180910390f35b34801561012357600080fd5b5061012c6105af565b6040516101399190610c10565b60405180910390f35b34801561014e57600080fd5b5061016960048036038101906101649190610979565b6105b5565b005b600360009054906101000a900473ffffffffffffffffffffffffffffffffffffffff1673ffffffffffffffffffffffffffffffffffffffff163373ffffffffffffffffffffffffffffffffffffffff16146101fb576040517f08c379a00000000000000000000000000000000000000000000000000000000081526004016101f290610bf0565b60405180910390fd5b61025c6040518060400160405280601c81526020017f57697468647261772073746172746564206279206f776e6572203a2000000000815250600360009054906101000a900473ffffffffffffffffffffffffffffffffffffffff1661065f565b61029b6040518060400160405280600f81526020017f7472616e7366657220574549203a200000000000000000000000000000000000815250476106fb565b600360009054906101000a900473ffffffffffffffffffffffffffffffffffffffff1673ffffffffffffffffffffffffffffffffffffffff166108fc479081150290604051600060405180830381858888f19350505050158015610303573d6000803e3d6000fd5b506103426040518060400160405280602081526020017f5472616e73666572656420746f206f776e657220776974682073756363657373815250610797565b565b600073ffffffffffffffffffffffffffffffffffffffff1660008054906101000a900473ffffffffffffffffffffffffffffffffffffffff1673ffffffffffffffffffffffffffffffffffffffff16146103d3576040517f08c379a00000000000000000000000000000000000000000000000000000000081526004016103ca90610b90565b60405180910390fd5b6001543414610417576040517f08c379a000000000000000000000000000000000000000000000000000000000815260040161040e90610b70565b60405180910390fd5b6104566040518060400160405280600981526020017f706179206279203a2000000000000000000000000000000000000000000000008152503361065f565b336000806101000a81548173ffffffffffffffffffffffffffffffffffffffff021916908373ffffffffffffffffffffffffffffffffffffffff1602179055506104d56040518060400160405280601a81526020017f636f6e74726163742062616c616e6365206973206e6f77203a20000000000000815250476106fb565b565b600280546104e490610d1b565b80601f016020809104026020016040519081016040528092919081815260200182805461051090610d1b565b801561055d5780601f106105325761010080835404028352916020019161055d565b820191906000526020600020905b81548152906001019060200180831161054057829003601f168201915b505050505081565b60008054906101000a900473ffffffffffffffffffffffffffffffffffffffff1681565b600360009054906101000a900473ffffffffffffffffffffffffffffffffffffffff1681565b60015481565b600282116105f8576040517f08c379a00000000000000000000000000000000000000000000000000000000081526004016105ef90610bd0565b60405180910390fd5b60008151141561063d576040517f08c379a000000000000000000000000000000000000000000000000000000000815260040161063490610bb0565b60405180910390fd5b81600181905550806002908051906020019061065a929190610859565b505050565b6106f78282604051602401610675929190610b10565b6040516020818303038152906040527f319af333000000000000000000000000000000000000000000000000000000007bffffffffffffffffffffffffffffffffffffffffffffffffffffffff19166020820180517bffffffffffffffffffffffffffffffffffffffffffffffffffffffff8381831617835250505050610830565b5050565b6107938282604051602401610711929190610b40565b6040516020818303038152906040527f9710a9d0000000000000000000000000000000000000000000000000000000007bffffffffffffffffffffffffffffffffffffffffffffffffffffffff19166020820180517bffffffffffffffffffffffffffffffffffffffffffffffffffffffff8381831617835250505050610830565b5050565b61082d816040516024016107ab9190610aee565b6040516020818303038152906040527f41304fac000000000000000000000000000000000000000000000000000000007bffffffffffffffffffffffffffffffffffffffffffffffffffffffff19166020820180517bffffffffffffffffffffffffffffffffffffffffffffffffffffffff8381831617835250505050610830565b50565b60008151905060006a636f6e736f6c652e6c6f679050602083016000808483855afa5050505050565b82805461086590610d1b565b90600052602060002090601f01602090048101928261088757600085556108ce565b82601f106108a057805160ff19168380011785556108ce565b828001600101855582156108ce579182015b828111156108cd5782518255916020019190600101906108b2565b5b5090506108db91906108df565b5090565b5b808211156108f85760008160009055506001016108e0565b5090565b600061090f61090a84610c50565b610c2b565b90508281526020810184848401111561092757600080fd5b610932848285610cd9565b509392505050565b600082601f83011261094b57600080fd5b813561095b8482602086016108fc565b91505092915050565b60008135905061097381610ee0565b92915050565b6000806040838503121561098c57600080fd5b600061099a85828601610964565b925050602083013567ffffffffffffffff8111156109b757600080fd5b6109c38582860161093a565b9150509250929050565b6109d681610c9d565b82525050565b60006109e782610c81565b6109f18185610c8c565b9350610a01818560208601610ce8565b610a0a81610ddc565b840191505092915050565b6000610a22601483610c8c565b9150610a2d82610ded565b602082019050919050565b6000610a45602183610c8c565b9150610a5082610e16565b604082019050919050565b6000610a68601d83610c8c565b9150610a7382610e65565b602082019050919050565b6000610a8b601283610c8c565b9150610a9682610e8e565b602082019050919050565b6000610aae601683610c8c565b9150610ab982610eb7565b602082019050919050565b610acd81610ccf565b82525050565b6000602082019050610ae860008301846109cd565b92915050565b60006020820190508181036000830152610b0881846109dc565b905092915050565b60006040820190508181036000830152610b2a81856109dc565b9050610b3960208301846109cd565b9392505050565b60006040820190508181036000830152610b5a81856109dc565b9050610b696020830184610ac4565b9392505050565b60006020820190508181036000830152610b8981610a15565b9050919050565b60006020820190508181036000830152610ba981610a38565b9050919050565b60006020820190508181036000830152610bc981610a5b565b9050919050565b60006020820190508181036000830152610be981610a7e565b9050919050565b60006020820190508181036000830152610c0981610aa1565b9050919050565b6000602082019050610c256000830184610ac4565b92915050565b6000610c35610c46565b9050610c418282610d4d565b919050565b6000604051905090565b600067ffffffffffffffff821115610c6b57610c6a610dad565b5b610c7482610ddc565b9050602081019050919050565b600081519050919050565b600082825260208201905092915050565b6000610ca882610caf565b9050919050565b600073ffffffffffffffffffffffffffffffffffffffff82169050919050565b6000819050919050565b82818337600083830152505050565b60005b83811015610d06578082015181840152602081019050610ceb565b83811115610d15576000848401525b50505050565b60006002820490506001821680610d3357607f821691505b60208210811415610d4757610d46610d7e565b5b50919050565b610d5682610ddc565b810181811067ffffffffffffffff82111715610d7557610d74610dad565b5b80604052505050565b7f4e487b7100000000000000000000000000000000000000000000000000000000600052602260045260246000fd5b7f4e487b7100000000000000000000000000000000000000000000000000000000600052604160045260246000fd5b6000601f19601f8301169050919050565b7f4e6f7420656e6f756768205745492073656e642e000000000000000000000000600082015250565b7f416c7265616479207061696420627920616e6f74686572206170706c6963616e60008201527f7400000000000000000000000000000000000000000000000000000000000000602082015250565b7f416e6e6f756e6365207469746c652063616e277420626520656d707479000000600082015250565b7f4d696e696d756d20707269636520697320320000000000000000000000000000600082015250565b7f596f7520617265206e6f7420746865206f776e65722e00000000000000000000600082015250565b610ee981610ccf565b8114610ef457600080fd5b5056fea2646970667358221220257b8cb466b8aeddae50f70b46bd8d592702a8083bf81962b020d352ba55212064736f6c63430008040033",
  "linkReferences": {},
  "deployedLinkReferences": {}
}